:020000040000fa
:080000000002040000000000f2
:020000040000fa
:040008007605000079
:020000040000fa
:04000c0004030000e9
:020000040000fa
:0400100016030000d3
:020000040000fa
:040014000c030000d9
:020000040000fa
:040018001e030000c3
:020000040000fa
:04001c007605000065
:020000040000fa
:040020007605000061
:020000040000fa
:04002400760500005d
:020000040000fa
:040028007605000059
:020000040000fa
:04002c007605000055
:020000040000fa
:040030007605000051
:020000040000fa
:04003400760500004d
:020000040000fa
:040038007605000049
:020000040000fa
:04003c007605000045
:020000040000fa
:040040007605000041
:020000040000fa
:04004400760500003d
:020000040000fa
:040048007605000039
:020000040000fa
:04004c007605000035
:020000040000fa
:040050007605000031
:020000040000fa
:04005400760500002d
:020000040000fa
:040058007605000029
:020000040000fa
:04005c007605000025
:020000040000fa
:040060007605000021
:020000040000fa
:04006400760500001d
:020000040000fa
:040068007605000019
:020000040000fa
:04006c007605000015
:020000040000fa
:040070007605000011
:020000040000fa
:04007400760500000d
:020000040000fa
:040078007605000009
:020000040000fa
:04007c007605000005
:020000040000fa
:040080007605000001
:020000040000fa
:0400840076050000fd
:020000040000fa
:0400880076050000f9
:020000040000fa
:04008c0076050000f5
:020000040000fa
:0400900076050000f1
:020000040000fa
:0400940076050000ed
:020000040000fa
:0400980076050000e9
:020000040000fa
:04009c0076050000e5
:020000040000fa
:0400a00076050000e1
:020000040000fa
:0400a40076050000dd
:020000040000fa
:0400a80076050000d9
:020000040000fa
:0400ac0076050000d5
:020000040000fa
:0400b00076050000d1
:020000040000fa
:0400b40076050000cd
:020000040000fa
:0400b80076050000c9
:020000040000fa
:0400bc0076050000c5
:020000040000fa
:0400c00076050000c1
:020000040000fa
:0400c40076050000bd
:020000040000fa
:0400c80076050000b9
:020000040000fa
:0400cc0076050000b5
:020000040000fa
:0400d00076050000b1
:020000040000fa
:0400d40076050000ad
:020000040000fa
:0400d80076050000a9
:020000040000fa
:0400dc0076050000a5
:020000040000fa
:0400e00076050000a1
:020000040000fa
:0400e400760500009d
:020000040000fa
:0400e8007605000099
:020000040000fa
:0400ec007605000095
:020000040000fa
:0400f00026030000e3
:020000040000fa
:0400f400760500008d
:020000040000fa
:0400f8007605000089
:020000040000fa
:0400fc007605000085
:020000040000fa
:040100007605000080
:020000040000fa
:04010400760500007c
:020000040000fa
:040108007605000078
:020000040000fa
:04010c007605000074
:020000040000fa
:040110007605000070
:020000040000fa
:04011400760500006c
:020000040000fa
:040118007605000068
:020000040000fa
:04011c007605000064
:020000040000fa
:040120007605000060
:020000040000fa
:04012400760500005c
:020000040000fa
:040128007605000058
:020000040000fa
:04012c007605000054
:020000040000fa
:040130007605000050
:020000040000fa
:04013400760500004c
:020000040000fa
:040138007605000048
:020000040000fa
:04013c007605000044
:020000040000fa
:040140007605000040
:020000040000fa
:04014400760500003c
:020000040000fa
:040148007605000038
:020000040000fa
:04014c007605000034
:020000040000fa
:040150007605000030
:020000040000fa
:04015400760500002c
:020000040000fa
:040158007605000028
:020000040000fa
:04015c007605000024
:020000040000fa
:040160007605000020
:020000040000fa
:04016400760500001c
:020000040000fa
:040168007605000018
:020000040000fa
:04016c007605000014
:020000040000fa
:040170007605000010
:020000040000fa
:04017400760500000c
:020000040000fa
:040178007605000008
:020000040000fa
:04017c007605000004
:020000040000fa
:040180007605000000
:020000040000fa
:0401840076050000fc
:020000040000fa
:0401880076050000f8
:020000040000fa
:04018c0076050000f4
:020000040000fa
:0401900076050000f0
:020000040000fa
:0401940076050000ec
:020000040000fa
:0401980076050000e8
:020000040000fa
:04019c0076050000e4
:020000040000fa
:0401a00076050000e0
:020000040000fa
:0401a40076050000dc
:020000040000fa
:0401a80076050000d8
:020000040000fa
:0401ac0076050000d4
:020000040000fa
:0401b00076050000d0
:020000040000fa
:0401b40076050000cc
:020000040000fa
:0401b80076050000c8
:020000040000fa
:0401bc0076050000c4
:020000040000fa
:0401c00076050000c0
:020000040000fa
:0401c40076050000bc
:020000040000fa
:0401c80076050000b8
:020000040000fa
:0401cc0076050000b4
:020000040000fa
:0401d00076050000b0
:020000040000fa
:0401d40076050000ac
:020000040000fa
:0401d80076050000a8
:020000040000fa
:0401dc0076050000a4
:020000040000fa
:0401e00076050000a0
:020000040000fa
:0401e400760500009c
:020000040000fa
:0401e8007605000098
:020000040000fa
:0401ec007605000094
:020000040000fa
:0401f0007605000090
:020000040000fa
:0401f400760500008c
:020000040000fa
:0401f8007605000088
:020000040000fa
:0401fc007605000084
:020000040000fa
:040208007605000077
:020000040000fa
:04020c0004030000e7
:020000040000fa
:0402100016030000d1
:020000040000fa
:040214000c030000d7
:020000040000fa
:040218001e030000c1
:020000040000fa
:04021c007605000063
:020000040000fa
:04022000760500005f
:020000040000fa
:04022400760500005b
:020000040000fa
:040228007605000057
:020000040000fa
:04022c007605000053
:020000040000fa
:04023000760500004f
:020000040000fa
:04023400760500004b
:020000040000fa
:040238007605000047
:020000040000fa
:04023c007605000043
:020000040000fa
:04024000760500003f
:020000040000fa
:04024400760500003b
:020000040000fa
:040248007605000037
:020000040000fa
:04024c007605000033
:020000040000fa
:04025000760500002f
:020000040000fa
:04025400760500002b
:020000040000fa
:040258007605000027
:020000040000fa
:04025c007605000023
:020000040000fa
:04026000760500001f
:020000040000fa
:04026400760500001b
:020000040000fa
:040268007605000017
:020000040000fa
:04026c007605000013
:020000040000fa
:04027000760500000f
:020000040000fa
:04027400760500000b
:020000040000fa
:040278007605000007
:020000040000fa
:04027c007605000003
:020000040000fa
:0402800076050000ff
:020000040000fa
:0402840076050000fb
:020000040000fa
:0402880076050000f7
:020000040000fa
:04028c0076050000f3
:020000040000fa
:0402900076050000ef
:020000040000fa
:0402940076050000eb
:020000040000fa
:0402980076050000e7
:020000040000fa
:04029c0076050000e3
:020000040000fa
:0402a00076050000df
:020000040000fa
:0402a40076050000db
:020000040000fa
:0402a80076050000d7
:020000040000fa
:0402ac0076050000d3
:020000040000fa
:0402b00076050000cf
:020000040000fa
:0402b40076050000cb
:020000040000fa
:0402b80076050000c7
:020000040000fa
:0402bc0076050000c3
:020000040000fa
:0402c00076050000bf
:020000040000fa
:0402c40076050000bb
:020000040000fa
:0402c80076050000b7
:020000040000fa
:0402cc0076050000b3
:020000040000fa
:0402d00076050000af
:020000040000fa
:0402d40076050000ab
:020000040000fa
:0402d80076050000a7
:020000040000fa
:0402dc0076050000a3
:020000040000fa
:0402e000760500009f
:020000040000fa
:0402e400760500009b
:020000040000fa
:0402e8007605000097
:020000040000fa
:0402ec007605000093
:020000040000fa
:0402f00026030000e1
:020000040000fa
:0402f400760500008b
:020000040000fa
:0402f8007605000087
:020000040000fa
:0402fc007605000083
:020000040000fa
:04030000760500007e
:020000040000fa
:04030400760500007a
:020000040000fa
:040308007605000076
:020000040000fa
:04030c007605000072
:020000040000fa
:04031000760500006e
:020000040000fa
:04031400760500006a
:020000040000fa
:040318007605000066
:020000040000fa
:04031c007605000062
:020000040000fa
:04032000760500005e
:020000040000fa
:04032400760500005a
:020000040000fa
:040328007605000056
:020000040000fa
:04032c007605000052
:020000040000fa
:04033000760500004e
:020000040000fa
:04033400760500004a
:020000040000fa
:040338007605000046
:020000040000fa
:04033c007605000042
:020000040000fa
:04034000760500003e
:020000040000fa
:04034400760500003a
:020000040000fa
:040348007605000036
:020000040000fa
:04034c007605000032
:020000040000fa
:04035000760500002e
:020000040000fa
:04035400760500002a
:020000040000fa
:040358007605000026
:020000040000fa
:04035c007605000022
:020000040000fa
:04036000760500001e
:020000040000fa
:04036400760500001a
:020000040000fa
:040368007605000016
:020000040000fa
:04036c007605000012
:020000040000fa
:04037000760500000e
:020000040000fa
:04037400760500000a
:020000040000fa
:040378007605000006
:020000040000fa
:04037c007605000002
:020000040000fa
:0403800076050000fe
:020000040000fa
:0403840076050000fa
:020000040000fa
:0403880076050000f6
:020000040000fa
:04038c0076050000f2
:020000040000fa
:0403900076050000ee
:020000040000fa
:0403940076050000ea
:020000040000fa
:0403980076050000e6
:020000040000fa
:04039c0076050000e2
:020000040000fa
:0403a00076050000de
:020000040000fa
:0403a40076050000da
:020000040000fa
:0403a80076050000d6
:020000040000fa
:0403ac0076050000d2
:020000040000fa
:0403b00076050000ce
:020000040000fa
:0403b40076050000ca
:020000040000fa
:0403b80076050000c6
:020000040000fa
:0403bc0076050000c2
:020000040000fa
:0403c00076050000be
:020000040000fa
:0403c40076050000ba
:020000040000fa
:0403c80076050000b6
:020000040000fa
:0403cc0076050000b2
:020000040000fa
:0403d00076050000ae
:020000040000fa
:0403d40076050000aa
:020000040000fa
:0403d80076050000a6
:020000040000fa
:0403dc0076050000a2
:020000040000fa
:0403e000760500009e
:020000040000fa
:0403e400760500009a
:020000040000fa
:0403e8007605000096
:020000040000fa
:0403ec007605000092
:020000040000fa
:0403f000760500008e
:020000040000fa
:0403f400760500008a
:020000040000fa
:0403f8007605000086
:020000040000fa
:0403fc007605000082
:020000040000fa
:10040000ef8420000e7f22000e0188000000000013
:10041000000020000000e000020032000001200087
:100420002002880014000700b20107000000e0006d
:1004300003003a00e0ff2000010020000200370026
:100440000000200001002000810f70000100320038
:1004500014000700000020000000e000020032004d
:1004600000000200000000000c0d0200000000006f
:100470000040da000000fe004440a90000302000e7
:100480000000e000030032000020200090018800fe
:100490004440a800000006008a1f78008b1f7800e7
:1004a00000000600a1028800800478000000eb0034
:1004b0001f003700e284440054a0b4009905ba003c
:1004c000e284440054a0b4009906ba00e2844400d7
:1004d00054a0b4000006eb00476fde00fd07b20039
:1004e000ae018800636ce10003003a00eaff0700f8
:1004f0000000eb000e003700606ce10008003a00dd
:10050000004deb000a05e800020039003420ec0041
:100510000af0a0008b05e900f9ff3e000400370057
:100520006168e100010032000086eb000b0007006b
:1005300019c7ba001905ba000e04e00003003a001a
:100540000a00e000dbff3a0000000600fe07b200f0
:10055000ae0288008a047800f5ff37000cd0a300b3
:10056000e20f4d001c00390089027800354dba00b9
:100570000a05e800020039003420ec000af0a0006f
:100580008b05e9000f003200254dba000a05e8008e
:10059000020039003420ec000af0a0008b05e900cd
:1005a000080032000c00e0000600320015cdba0051
:1005b0000a05e800020039003420ec000af0a0002f
:1005c0008b05e9008984e80054a0b4000b00e0002a
:1005d000e2ff3a00000006009902ba00055d7800cb
:1005e0008b05e900f7ff3200c82ade00055d7800c0
:1005f0008b05e900f3ff32000c00e000f1ff320050
:1006000019ddba00eeff37003600f8008020a9009f
:100610000000eb00980607003600f8009a06070075
:100620008040a90010002000930607003600f80063
:100630008060a900200020008f0607003600f80027
:100640008080a900300020008b0607003600f800eb
:10065000809fbe00829fbe00849fbe00869fbe001a
:100660000000fa008a40a900c110800000082000a4
:10067000008060000000e0000800320018e2a900dd
:100680000828ef0070408000200090008000eb0000
:10069000010878000e28ef000d013700404080006f
:1006a0008000eb00b200200003002000820f500009
:1006b000838f5800fc003e00006001000b003700f3
:1006c00039003700750037009c003700f300370011
:1006d000c8003700d9003700f0003700db003700d2
:1006e000f100370034003700500037000080200050
:1006f00020009000620060000000e000f3003a007b
:1007000000802000100090007040880000802000d1
:1007100010009000104078000ae8b7000080200028
:1007200010009000100090006040880000802000c1
:1007300010009000e60040000080200011009800aa
:10074000008020009000900020842000808f5000c6
:1007500003003a0000802000c183200011009800af
:1007600000802000a00090000100a100210098005e
:100770000080200090009000008020001000780091
:10078000808f500004003a0000802000a0009000fc
:100790000110a000210098001602a80020002000ef
:1007a00040408800ca0037001622a8002000200020
:1007b00040408800c6003700c110800000002800bb
:1007c000008060000000e00008003200008020008f
:1007d000604090008040e800008020006140980068
:1007e00040002000f4040700b9003700804080007a
:1007f0008000d100f00f2000008060009010880081
:100800008040800061006000004078000004e0004b
:1008100003003200b000200040408800ac003700e8
:100820003000200040408800a9003700c11080003f
:1008300000002800008060000000e0000800320096
:1008400000802000604090008040e8000080200090
:100850006140980040002000d70407009c0037004a
:100860001622a800804080004800de00e6006000fc
:10087000000f200001007000804088008040800050
:100880000000a0008040880010c0b30012e8b7004c
:1008900020002000404088008d00370012c8bf00b3
:1008a000e14f50000a0032006040800010007800e4
:1008b000804088006040800020009000a0408800b8
:1008c000604080002040900016e8b700010037002b
:1008d0001268ef0081408000f00f2000808f5000f0
:1008e00009003600804080004800de00e60060001d
:1008f000000f20000100700090108800a000200070
:1009000040408800720037008040800090108800ce
:100910008040800061006000004078000004e0003a
:10092000030032005000200040408800680037007b
:10093000300020004040880065003700c110800072
:1009400000002800008060000000e0000900320084
:1009500000802000604090008040e800008020007f
:100960006140980019e2a90050002000920407009d
:100970005700370016c8bf008080fb008100e900e7
:10098000cf08de00814078000040e90016e8b7009b
:100990000104e0001000320060408000660040006a
:1009a000604088000ac8bf000040e9000ae8b700bc
:1009b0000ac8bf000004e00003003a002000200045
:1009c0007d040700420037001622a8002000200006
:1009d000404088003e003700a040800090407800f2
:1009e0008180fb00911088000000e800a040880092
:1009f00037003700c1108000000028000080600030
:100a00000000e000090032000080200060409000fb
:100a10008040e800008020006140980040002000f5
:100a20006504070019e2a900290037001662a80032
:100a30008000200040408800250037008000200012
:100a4000404088001662a80021003700a0408000c6
:100a50008110800081407800014878000000e800a3
:100a6000a040880016c8bf000040e90016e8b700a3
:100a700016c8bf000004e0000400320016a2a9005e
:100a800060002000404088000200370016a2a80045
:100a9000380407001682a8000d003700200020004f
:100aa000450407000a0037000080200060409000e5
:100ab0008040e80000802000614098006000200035
:100ac0003d040700000000000100370000000000a6
:100ad0000080fa004f03be004f02be004f01be006f
:100ae0004f00be003600f900004006000040da006a
:100af0000000fe00000005006022b8000602200091
:100b00000000d0008180d2000482d2008582d20011
:100b10000000a0000202520083825a00030031004c
:100b20000202420083824a000000a1000603e9009d
:100b3000f3ff3a000000060000027800808f5000aa
:100b40000c00310082814000830f50000900310009
:100b50008200400002003700c36078000201e90013
:100b60000200e000fcff3a0000000600315a780065
:100b70000201e9000200e000fcff3a00000006006c
:020000040000fa
:100b80000000000000000000000000000000000065
:100b9000000000005f0000000000000000000000f6
:100ba0000000000007000000070000000000000037
:100bb000001400007f1400007f14000000000000fb
:100bc000002400002a7f00002a120000000000001c
:100bd0000023000013080000646200000000000011
:100be00000360000495500002250000000000000bf
:100bf00000000000050300000000000000000000ed
:100c0000001c000022410000000000000000000065
:100c100000410000221c0000000000000000000055
:100c2000000800002a1c00002a0800000000000044
:100c300000080000083e0000080800000000000056
:100c400000a00000600000000000000000000000a4
:100c5000000800000808000008080000000000006c
:100c600000600000600000000000000000000000c4
:100c70000020000010080000040200000000000036
:100c8000003e000051490000453e00000000000009
:100c900000000000427f0000400000000000000053
:100ca00000620000514900004946000000000000b9
:100cb0000022000041490000493600000000000009
:100cc00000180000141200007f1000000000000057
:100cd00000270000454500004539000000000000e5
:100ce000003c00004a4900004930000000000000bc
:100cf0000001000071090000050300000000000071
:100d0000003600004949000049360000000000009c
:100d10000006000049490000291e000000000000f4
:100d20000000000036360000000000000000000057
:100d300000000000ac6c000000000000000000009b
:100d40000008000014220000410000000000000024
:100d5000001400001414000014140000000000002f
:100d60000041000022140000080000000000000004
:100d70000002000001510000090600000000000010
:100d80000032000049790000413e000000000000f0
:100d9000007e000009090000097e0000000000003c
:100da000007f0000494900004936000000000000b3
:100db000003e000041410000412200000000000010
:100dc000007f000041410000221c000000000000e4
:100dd000007f000049490000494100000000000078
:100de000007f000009090000090100000000000068
:100df000003e000041410000517200000000000070
:100e0000007f000008080000087f000000000000cc
:100e1000004100007f4100000000000000000000d1
:100e200000200000404100003f01000000000000e1
:100e3000007f0000081400002241000000000000b4
:100e4000007f000040400000404000000000000023
:100e5000007f0000020c0000027f00000000000084
:100e6000007f000004080000107f00000000000068
:100e7000003e000041410000413e00000000000033
:100e8000007f0000090900000906000000000000c2
:100e9000003e000041510000215e00000000000003
:100ea000007f000009190000294600000000000032
:100eb00000260000494900004932000000000000ff
:100ec00000010000017f000001010000000000009f
:100ed000003f000040400000403f000000000000d4
:100ee000001f000020400000201f00000000000044
:100ef000003f000040380000403f000000000000bc
:100f000000630000140800001463000000000000eb
:100f1000000300000478000004030000000000004b
:100f2000006100005149000045430000000000003e
:100f3000007f0000414100000000000000000000b0
:100f40000002000004080000102000000000000063
:100f500000410000417f0000000000000000000090
:100f60000004000002010000020400000000000074
:100f700000800000808000008080000000000000f1
:100f8000000100000204000000000000000000005a
:100f900000200000545400005478000000000000bd
:100fa000007f0000484400004438000000000000ba
:100fb0000038000044440000280000000000000049
:100fc0000038000044440000487f0000000000009a
:100fd00000380000545400005418000000000000c5
:100fe000000800007e090000020000000000000070
:100ff00000180000a4a40000a47c00000000000071
:10100000007f0000080400000478000000000000d9
:10101000000000007d000000000000000000000053
:1010200000800000847d000000000000000000003f
:10103000007f0000102800004400000000000000b5
:10104000004100007f4000000000000000000000a0
:10105000007c00000418000004780000000000007c
:10106000007c0000080400007c000000000000007c
:101070000038000044440000380000000000000078
:1010800000fc000024240000180000000000000004
:101090000018000024240000fc00000000000000f4
:1010a000000000007c0800000400000000000000b8
:1010b000004800005454000024000000000000001c
:1010c000000400007f440000000000000000000059
:1010d000003c0000404000007c00000000000000d8
:1010e000001c000020400000201c00000000000048
:1010f000003c000040300000403c000000000000c8
:1011000000440000281000002844000000000000f7
:10111000001c0000a0a000007c00000000000000f7
:1011200000440000645400004c4400000000000033
:101130000008000036410000000000000000000030
:10114000000000007f000000000000000000000020
:101150000041000036080000000000000000000010
:101160000002000001010000020100000000000078
:101170000002000005050000020000000000000061
:020000040000fa
:101180001200fa00000f98000e0890006a00b900e3
:10119000000078008000eb006011b8004007980064
:1011a0005107980062079800730798006000b80024
:1011b0006011b800009fbe000297be000b00370010
:1011c000000000003e02be002e03be001000200002
:1011d000010020006011b800001f4200019f4a007a
:1011e000021f4b00038f4b006e00b1004e009000b9
:1011f000de0090006e019000fe0190003e02be00f5
:101200002e03be000020e10001a8e10002b0e100d1
:1012100003b8e100eaff39000080fa000000060090
:101220000000fa0017e2a9000080fa0000000600a2
:101230000200fa00faff0700e8a2a900eca2a90048
:101240000040eb00004f780003003700a0002000b2
:10125000cbff07001e4fe8001e407800e94f50000a
:10126000faff3600e8a2a800e882a800a00020004b
:10127000c3ff07000080fa00000006000800fa0023
:10128000604798006e4090000080fb0062006000a4
:101290000000e0000300320000a8210061002000ef
:1012a00002003700006a280011002000008fbe00f5
:1012b0001e01be0000902000d10320000efe07009a
:1012c00000007800650050002007980070022000a0
:1012d000a010880017e2a8000080fa0000000600b5
:1012e0001200fa00004f980051079800620798001a
:1012f00073079800040f98000000eb00000f7800bf
:101300005e0090000000e000050032006e009000da
:101310000000e00002003200100020000100370051
:101320000000eb00604798007e0090000000e000a5
:10133000050032000e0890000000e00002003200bc
:1013400010002000010037000000eb0070479800fb
:101350006e4090000004a2000004e000060032008d
:101360007e4090000004a2000004e0000200320071
:101370000080eb00e70037001942a9001602a80020
:101380000100370000000000c11080000040200074
:10139000008060000000e00002003200e0ff2f004b
:1013a000dc003700b0108000610060000000e00049
:1013b000f4ff3a000e4890000080fb00000040005f
:1013c000800078006e4090000004e00002003200cf
:1013d0000000eb0001003700100020000100700049
:1013e000901088000100370000000000c11080004c
:1013f00000402000008060000000e0000200320099
:10140000d0ff2f00c3003700c1108000000024006f
:10141000008060000000e000f3ff3a00c11080008f
:1014200000002800008060000000e00002003200a0
:10143000c0ff2f00b70037006000b8001007980009
:1014400021079800210037001e009000de00900068
:1014500000804000104078000080fb009010880061
:101460000100370000000000c11080000040200093
:10147000008060000000e00002003200b0ff2f009a
:10148000a4003700c110800000002400008060002c
:101490000000e000f3ff3a00c110800000002800c7
:1014a000008060000000e00002003200a0ff2f007a
:1014b000980037001e009000ae00900061004000d0
:1014c000e080480010079800210798006e00900007
:1014d0006101b9001e009000ae009000800f510025
:1014e000818f5900d8ff3e007e4090000004e0004c
:1014f000790032006e4090000004e00028003200c5
:101500001622a8000100370000000000c110800072
:1015100000402000008060000000e0000200320077
:1015200090ff2f007b003700b01080006200600049
:101530000000e000f4ff3a000e4890000080fb003d
:10154000000040000000a00090108800010037005b
:1015500000000000c11080000040200000806000fa
:101560000000e0000200320080ff2f006900370019
:10157000c110800000002400008060000000e00036
:10158000f3ff3a00c11080000000280000806000d6
:101590000000e0000200320070ff2f005d00370005
:1015a0006000b8001007980021079800430037003a
:1015b000b01080007f0060000000e00002003200f8
:1015c00060ff2f00530037001662a80001003700ab
:1015d00000000000c110800000402000008060007a
:1015e0000000e0000200320050ff2f0049003700e9
:1015f000b0108000680060000000e000f4ff3a00d6
:101600001e009000fe0090000080400081108000cd
:1016100081407800014878001e0fe8000e08900015
:101620000000e9006101b9001e009000ae009000ca
:1016300000006900818069000080700000f0a70050
:101640000000ea000000e9004f00de0000407800e2
:101650000080fb00610060004500dd00b1108000eb
:101660000150a10001007000b01088001682a8008f
:101670000100370000000000c11080000040200081
:10168000008060000000e0000200320040ff2f00f8
:1016900020003700b0108000700060000000e00003
:1016a000f4ff3a001e009000ae0090006100400080
:1016b000e080480010079800210798000e0890006d
:1016c0006101b9001e009000ae009000800f510033
:1016d000818f5900b6ff3e001642a8000100370076
:1016e00000000000c1108000004020000080600069
:1016f0000000e0000200320030ff2f00050037003c
:10170000b0108000640060000000e000f4ff3a00c8
:101710001e0078000080fa00000006000c00fa00ad
:101720002047980021079800320798004307980047
:10173000540798005e029000ce0190003e01900098
:10174000ae0090002e409000e5fe0700000f7800ec
:101750001e0078000000e00006003d001942a900cc
:10176000c0108000680060000000e000010032004e
:101770001642a8001e0078000080fa000000060053
:101780000400fa002047980000c8b300004f78001a
:10179000ae409000114798000002eb008001eb0082
:1017a000220020008e007800e0c1b300dbff0700bc
:1017b0000080fa00000006000600fa00404798008a
:1017c00000c8b300004f780030cdb3001047980038
:1017d000ce409000214798000002eb008001eb0012
:1017e000320020008e007800e0c1b300cbff07007c
:1017f0000080fa00000006000400fa00204798006c
:1018000000c4b300004f7800ae409000114798002c
:101810000002eb008001eb00220020008e00780027
:10182000e0c1b300bdff07000080fa000000060021
:101830000200fa00004f78001147980000cbb30077
:101840001e404000ceff07009e4090003000200068
:101850000008dd006f406000c9ff07001e409000d7
:101860000080fb004300dd004480de000040780083
:101870006f40600070404000c1ff07000080fa0028
:10188000000006000e00fa00404f98004e489000fd
:10189000ff4f500002003c0000c2b300404f9800d0
:1018a000015c28004e4890000000fb000002b100df
:1018b0004300dd00008f400000c4b30020479800c3
:1018c0000e80e8000000e800820020009e00780002
:1018d00099fc07000e80e8000002eb008001eb009d
:1018e0009200200080007800e0c1b3008bff070069
:1018f0000080fa00000006000200fa00000f7800e5
:10190000040037001e007800104078001e0fe80029
:10191000dcff07001e007800104078000004e000a3
:10192000f8ff3a000080fa00000006000400fa0008
:101930000000eb00000f7800110037000000eb0002
:10194000100798000a0037001e00900080407800c1
:101950001e00780000407800b5ff070000c2b30009
:10196000c8ff07001e0090000000e8001007980064
:101970001e009000ef0f5000f3ff36001e0fe8002e
:101980001e007800e70f5000ecff36000080fa00e0
:10199000000006000000fa00e0cab30078ff07006c
:1019a00040062000f6fd0700f0cab30074ff0700f0
:1019b00040062000f2fd070060cab30070ff070078
:1019c000e0c2b3006eff07000080fa0000000600ce
:1019d0000400fa00100798000040eb00004f780068
:1019e0000040eb00104798000040eb00004f7800eb
:1019f0001e0090000040780010479800a38120004e
:101a0000c203200021c0b3000e0078007700070059
:101a10000080fa00000006000600fa00a10107009d
:101a20006000b800008fbe000400370012002000e4
:101a3000030020001e0f41005e974900f070220055
:101a4000010020001e01be00800f5100818f59004f
:101a5000f6ff3600f00a2000ddff0700500a2000e4
:101a6000dbff0700700a2000d9ff070010082000e4
:101a7000d7ff0700500b2000d5ff07008000200093
:101a8000d3ff070020012000d1ff07000000eb007a
:101a900020079800f00a2000cdff070090002000ea
:101aa000cbff070090002000c9ff07009000200036
:101ab000c7ff07006000b800008fbe0004003700b9
:101ac00012002000030020001e0f41005e97490015
:101ad00030062000010020001e01be00800f5100d2
:101ae000818f5900f6ff3600eaff37000000fa0048
:101af00000802000c1832000110098000080200099
:101b0000c18320000108780000802000a000900020
:101b10000110a0002100980000802000a00090008b
:101b20000100a10021009800008020008040eb000f
:101b30006140980070022000a0108800000028007a
:101b4000b01088001822ef008a40a9009a40a8002f
:101b50000080fa00000006000200fa000080200069
:101b6000e0409000014f78001e4078000080fa00ad
:101b7000000006000000fa0060408000660040009f
:101b8000604088000ac8bf000040e9000ae8b700ca
:101b90000ac8bf000004e00003003a004000200033
:101ba00040408800020037001000200040408800bc
:101bb0000080fa00000006000200fa00000f780022
:101bc0001642a80070408000200090000000e00055
:101bd0000300320070408000200090001e08780052
:101be0000828ef000080fa00000006000800fa0054
:101bf000000f7800214798002207980033079800cb
:101c00000080200020009000610060000000e000e3
:101c10000a003a00ae0190002e4190009e0078002c
:101c200080842000770007003e019000818420001e
:101c300010c0b3001f000700030037003e009000f3
:101c40008000eb00010878000080fa000000060028
:101c50000800fa00000f780021479800220798003a
:101c60003307980000802000200090006100600091
:101c70000000e0000a003a00ae0190002e41900002
:101c80009e00780020842000460007003e0190005e
:101c90002184200010c0b3000600070003003700b5
:101ca0003e0090008000eb00010878000080fa0000
:101cb000000006000600fa00004f780011079800a7
:101cc0002207980000802000200090006100600042
:101cd0000000e0002e003a002e00900011002000cd
:101ce0000108780000802000100078009e0090001d
:101cf0001100980000802000100078001e48780035
:101d00000080200010007800ae00900021009800b4
:101d10000080200010007800e600400000802000d5
:101d200001087800008020009000780020842000c6
:101d3000808f500003003a0000802000c183200003
:101d40000108780000802000a00090000110a10090
:101d5000210098000080200090009000008020006a
:101d600010007800808f500004003a0000802000ae
:101d7000a00090000100a0002100980040408000d9
:101d80000000e00005003a008a40a8000300370088
:101d90002e0090008000eb00010878000080fa001f
:101da000000006000800fa00000f780011079800f4
:101db00042479800330798003e0090000000400022
:101dc000800078001e007800010878001e0078006e
:101dd00010007800800078000100a0001e0078004c
:101de000010878001e007800ce4090002140980045
:101df0001e0078009e009000210098000080fa00ec
:101e0000000006000800fa00000f78001107980093
:101e100042479800330798003e00900000004000c1
:101e2000800078001e007800010878001e0078000d
:101e3000ce409000214098001e0078009e00900047
:101e4000210098000080fa00000006000000fa005f
:101e500000802000200090006200600000f0a700d9
:101e60000000ea000000ea004f00de0000407800b9
:101e70000080fa00000006000000fa000080200048
:101e8000200090006100600000f0a7000000ea0060
:101e90000000ea004f00de00004078000080fa00f9
:101ea000000006000000fa00c422ef00cc22ef0080
:101eb000d422ef00dc22ef00e422ef00ec22ef005e
:101ec000f422ef00f06f2c0000168800f00f2f00b6
:101ed00040168800e0012700801688000080eb0093
:101ee000c0168800f03f200000178800301b230038
:101ef00040178800f03c2f00801788005620ef0024
:101f00005820ef005a20ef005c20ef005e20ef0029
:101f10006020ef006e20ef007020ef007220ef00d5
:101f20007420ef007620ef007820ef00c622ef004b
:101f3000ce22ef00d622ef00de22ef00e622ef00f5
:101f4000ee22ef00f622ef00606f2c0000278800e1
:101f5000c00f2f0010278800a00120002027880034
:101f60000080eb0030278800002f200040278800e9
:101f70001018220050278800003c280060278800a5
:101f8000a804a8000080fa00000006000000fa0083
:101f900000002300303a88004827ef004e27ef006a
:101fa0007027ef007227ef007427ef007627ef000d
:101fb0007827ef007a27ef007c27ef0072002000df
:101fc00080072000a1092000337420008049780098
:101fd00081497800824978000001eb00600420000c
:101fe0007105200023742000804978008149780021
:0c1ff000824978000080fa000000060022
:020000040000fa
:101ffc001c080000200000008000000018080000f1
:10200c000200000082000000ffff00003c080000fe
:10201c001200000080000000000800001800000002
:10202c00800000001a08000002000000820000007e
:08203c0001000000000000009b
:020000040000fa
:102044000000fa00e1058000f08f2f00008060009e
:102054000080a000e0058800e1058000f0f82f0072
:10206400008060000040a000e00588000080fa00c5
:1020740000000600000f78009e007800c140880030
:10208400ffff37000000fa00c081200080077800bd
:1020940040832000000188000080fa000000060050
:1020a4000000fa007eff0700e5ff0700b6ff070007
:1020b4008dfe07000080fa00000006000000fa0010
:0c20c400b1ff07000080fa0000000600d9
:020000040000fa
:020000040002f8
:04aff000ffbf00009f
:020000040000fa
:020000040002f8
:04aff400fffe00005c
:020000040000fa
:020000040002f8
:04aff800bf7f000017
:020000040000fa
:020000040002f8
:04affc003f3f0000d3
:00000001FF
